{"contracts/Escrow.sol":{"Escrow":{"abi":[{"inputs":[{"internalType":"address","name":"ERC20Address","type":"address"}],"stateMutability":"nonpayable","type":"constructor"},{"inputs":[],"name":"_token","outputs":[{"internalType":"contract IERC20","name":"","type":"address"}],"stateMutability":"view","type":"function"},{"inputs":[{"internalType":"bytes32","name":"trx_hash","type":"bytes32"},{"internalType":"uint256","name":"amount","type":"uint256"}],"name":"depositEscrow","outputs":[],"stateMutability":"nonpayable","type":"function"},{"inputs":[{"internalType":"uint256","name":"amount","type":"uint256"}],"name":"getHash","outputs":[{"internalType":"bytes32","name":"result","type":"bytes32"}],"stateMutability":"view","type":"function"},{"inputs":[{"internalType":"bytes32","name":"trx_hash","type":"bytes32"}],"name":"withdrawalEscrow","outputs":[],"stateMutability":"nonpayable","type":"function"}],"evm":{"bytecode":{"linkReferences":{},"object":"608060405234801561001057600080fd5b50604051610dd3380380610dd3833981810160405281019061003291906100e3565b6000600181905550806000806101000a81548173ffffffffffffffffffffffffffffffffffffffff021916908373ffffffffffffffffffffffffffffffffffffffff16021790555050610110565b600080fd5b600073ffffffffffffffffffffffffffffffffffffffff82169050919050565b60006100b082610085565b9050919050565b6100c0816100a5565b81146100cb57600080fd5b50565b6000815190506100dd816100b7565b92915050565b6000602082840312156100f9576100f8610080565b5b6000610107848285016100ce565b91505092915050565b610cb48061011f6000396000f3fe608060405234801561001057600080fd5b506004361061004c5760003560e01c806321c56f13146100515780636b2fafa91461006d578063765d49ac1461009d578063ecd0c0c3146100b9575b600080fd5b61006b600480360381019061006691906105ae565b6100d7565b005b610087600480360381019061008291906105ee565b610302565b604051610094919061062a565b60405180910390f35b6100b760048036038101906100b29190610645565b610338565b005b6100c1610519565b6040516100ce91906106f1565b60405180910390f35b600060f81b826000602081106100f0576100ef61070c565b5b1a60f81b7effffffffffffffffffffffffffffffffffffffffffffffffffffffffffffff191603610156576040517f08c379a000000000000000000000000000000000000000000000000000000000815260040161014d906107be565b60405180910390fd5b60008103610199576040517f08c379a000000000000000000000000000000000000000000000000000000000815260040161019090610850565b60405180910390fd5b60006002600084815260200190815260200160002054146101ef576040517f08c379a00000000000000000000000000000000000000000000000000000000081526004016101e6906108e2565b60405180910390fd5b60008054906101000a900473ffffffffffffffffffffffffffffffffffffffff1673ffffffffffffffffffffffffffffffffffffffff166323b872dd3330846040518463ffffffff1660e01b815260040161024c93929190610932565b6020604051808303816000875af115801561026b573d6000803e3d6000fd5b505050506040513d601f19601f8201168201806040525081019061028f91906109a1565b6102ce576040517f08c379a00000000000000000000000000000000000000000000000000000000081526004016102c590610a1a565b60405180910390fd5b806002600084815260200190815260200160002081905550600160008154809291906102f990610a69565b91905055505050565b6000336001548360405160200161031b93929190610b1a565b604051602081830303815290604052805190602001209050919050565b600060f81b816000602081106103515761035061070c565b5b1a60f81b7effffffffffffffffffffffffffffffffffffffffffffffffffffffffffffff1916036103b7576040517f08c379a00000000000000000000000000000000000000000000000000000000081526004016103ae906107be565b60405180910390fd5b600060026000838152602001908152602001600020540361040d576040517f08c379a000000000000000000000000000000000000000000000000000000000815260040161040490610bc9565b60405180910390fd5b60008054906101000a900473ffffffffffffffffffffffffffffffffffffffff1673ffffffffffffffffffffffffffffffffffffffff1663a9059cbb3360026000858152602001908152602001600020546040518363ffffffff1660e01b815260040161047b929190610be9565b6020604051808303816000875af115801561049a573d6000803e3d6000fd5b505050506040513d601f19601f820116820180604052508101906104be91906109a1565b6104fd576040517f08c379a00000000000000000000000000000000000000000000000000000000081526004016104f490610c5e565b60405180910390fd5b6000600260008381526020019081526020016000208190555050565b60008054906101000a900473ffffffffffffffffffffffffffffffffffffffff1681565b600080fd5b6000819050919050565b61055581610542565b811461056057600080fd5b50565b6000813590506105728161054c565b92915050565b6000819050919050565b61058b81610578565b811461059657600080fd5b50565b6000813590506105a881610582565b92915050565b600080604083850312156105c5576105c461053d565b5b60006105d385828601610563565b92505060206105e485828601610599565b9150509250929050565b6000602082840312156106045761060361053d565b5b600061061284828501610599565b91505092915050565b61062481610542565b82525050565b600060208201905061063f600083018461061b565b92915050565b60006020828403121561065b5761065a61053d565b5b600061066984828501610563565b91505092915050565b600073ffffffffffffffffffffffffffffffffffffffff82169050919050565b6000819050919050565b60006106b76106b26106ad84610672565b610692565b610672565b9050919050565b60006106c98261069c565b9050919050565b60006106db826106be565b9050919050565b6106eb816106d0565b82525050565b600060208201905061070660008301846106e2565b92915050565b7f4e487b7100000000000000000000000000000000000000000000000000000000600052603260045260246000fd5b600082825260208201905092915050565b7f5472616e73616374696f6e20686173682063616e6e6f7420626520656d70747960008201527f2100000000000000000000000000000000000000000000000000000000000000602082015250565b60006107a860218361073b565b91506107b38261074c565b604082019050919050565b600060208201905081810360008301526107d78161079b565b9050919050565b7f457363726f7720616d6f756e742063616e6e6f7420626520657175616c20746f60008201527f20302e0000000000000000000000000000000000000000000000000000000000602082015250565b600061083a60238361073b565b9150610845826107de565b604082019050919050565b600060208201905081810360008301526108698161082d565b9050919050565b7f556e69717565206861736820636f6e666c6963742c206861736820697320616c60008201527f726561647920696e207573652e00000000000000000000000000000000000000602082015250565b60006108cc602d8361073b565b91506108d782610870565b604082019050919050565b600060208201905081810360008301526108fb816108bf565b9050919050565b600061090d82610672565b9050919050565b61091d81610902565b82525050565b61092c81610578565b82525050565b60006060820190506109476000830186610914565b6109546020830185610914565b6109616040830184610923565b949350505050565b60008115159050919050565b61097e81610969565b811461098957600080fd5b50565b60008151905061099b81610975565b92915050565b6000602082840312156109b7576109b661053d565b5b60006109c58482850161098c565b91505092915050565b7f5472616e7366657220746f20657363726f77206661696c656421000000000000600082015250565b6000610a04601a8361073b565b9150610a0f826109ce565b602082019050919050565b60006020820190508181036000830152610a33816109f7565b9050919050565b7f4e487b7100000000000000000000000000000000000000000000000000000000600052601160045260246000fd5b6000610a7482610578565b91507fffffffffffffffffffffffffffffffffffffffffffffffffffffffffffffffff8203610aa657610aa5610a3a565b5b600182019050919050565b60008160601b9050919050565b6000610ac982610ab1565b9050919050565b6000610adb82610abe565b9050919050565b610af3610aee82610902565b610ad0565b82525050565b6000819050919050565b610b14610b0f82610578565b610af9565b82525050565b6000610b268286610ae2565b601482019150610b368285610b03565b602082019150610b468284610b03565b602082019150819050949350505050565b7f457363726f772077697468207472616e73616374696f6e206861736820646f6560008201527f736e27742065786973742e000000000000000000000000000000000000000000602082015250565b6000610bb3602b8361073b565b9150610bbe82610b57565b604082019050919050565b60006020820190508181036000830152610be281610ba6565b9050919050565b6000604082019050610bfe6000830185610914565b610c0b6020830184610923565b9392505050565b7f457363726f772072657472696576616c206661696c6564210000000000000000600082015250565b6000610c4860188361073b565b9150610c5382610c12565b602082019050919050565b60006020820190508181036000830152610c7781610c3b565b905091905056fea2646970667358221220fb7d8b2c7fc5aa4215db6d5ac1a732e0d45e73a94574db2ecaa22483b1f8d2b264736f6c63430008140033","opcodes":"PUSH1 0x80 PUSH1 0x40 MSTORE CALLVALUE DUP1 ISZERO PUSH2 0x10 JUMPI PUSH1 0x0 DUP1 REVERT JUMPDEST POP PUSH1 0x40 MLOAD PUSH2 0xDD3 CODESIZE SUB DUP1 PUSH2 0xDD3 DUP4 CODECOPY DUP2 DUP2 ADD PUSH1 0x40 MSTORE DUP2 ADD SWAP1 PUSH2 0x32 SWAP2 SWAP1 PUSH2 0xE3 JUMP JUMPDEST PUSH1 0x0 PUSH1 0x1 DUP2 SWAP1 SSTORE POP DUP1 PUSH1 0x0 DUP1 PUSH2 0x100 EXP DUP2 SLOAD DUP2 PUSH20 0xFFFFFFFFFFFFFFFFFFFFFFFFFFFFFFFFFFFFFFFF MUL NOT AND SWAP1 DUP4 PUSH20 0xFFFFFFFFFFFFFFFFFFFFFFFFFFFFFFFFFFFFFFFF AND MUL OR SWAP1 SSTORE POP POP PUSH2 0x110 JUMP JUMPDEST PUSH1 0x0 DUP1 REVERT JUMPDEST PUSH1 0x0 PUSH20 0xFFFFFFFFFFFFFFFFFFFFFFFFFFFFFFFFFFFFFFFF DUP3 AND SWAP1 POP SWAP2 SWAP1 POP JUMP JUMPDEST PUSH1 0x0 PUSH2 0xB0 DUP3 PUSH2 0x85 JUMP JUMPDEST SWAP1 POP SWAP2 SWAP1 POP JUMP JUMPDEST PUSH2 0xC0 DUP2 PUSH2 0xA5 JUMP JUMPDEST DUP2 EQ PUSH2 0xCB JUMPI PUSH1 0x0 DUP1 REVERT JUMPDEST POP JUMP JUMPDEST PUSH1 0x0 DUP2 MLOAD SWAP1 POP PUSH2 0xDD DUP2 PUSH2 0xB7 JUMP JUMPDEST SWAP3 SWAP2 POP POP JUMP JUMPDEST PUSH1 0x0 PUSH1 0x20 DUP3 DUP5 SUB SLT ISZERO PUSH2 0xF9 JUMPI PUSH2 0xF8 PUSH2 0x80 JUMP JUMPDEST JUMPDEST PUSH1 0x0 PUSH2 0x107 DUP5 DUP3 DUP6 ADD PUSH2 0xCE JUMP JUMPDEST SWAP2 POP POP SWAP3 SWAP2 POP POP JUMP JUMPDEST PUSH2 0xCB4 DUP1 PUSH2 0x11F PUSH1 0x0 CODECOPY PUSH1 0x0 RETURN INVALID PUSH1 0x80 PUSH1 0x40 MSTORE CALLVALUE DUP1 ISZERO PUSH2 0x10 JUMPI PUSH1 0x0 DUP1 REVERT JUMPDEST POP PUSH1 0x4 CALLDATASIZE LT PUSH2 0x4C JUMPI PUSH1 0x0 CALLDATALOAD PUSH1 0xE0 SHR DUP1 PUSH4 0x21C56F13 EQ PUSH2 0x51 JUMPI DUP1 PUSH4 0x6B2FAFA9 EQ PUSH2 0x6D JUMPI DUP1 PUSH4 0x765D49AC EQ PUSH2 0x9D JUMPI DUP1 PUSH4 0xECD0C0C3 EQ PUSH2 0xB9 JUMPI JUMPDEST PUSH1 0x0 DUP1 REVERT JUMPDEST PUSH2 0x6B PUSH1 0x4 DUP1 CALLDATASIZE SUB DUP2 ADD SWAP1 PUSH2 0x66 SWAP2 SWAP1 PUSH2 0x5AE JUMP JUMPDEST PUSH2 0xD7 JUMP JUMPDEST STOP JUMPDEST PUSH2 0x87 PUSH1 0x4 DUP1 CALLDATASIZE SUB DUP2 ADD SWAP1 PUSH2 0x82 SWAP2 SWAP1 PUSH2 0x5EE JUMP JUMPDEST PUSH2 0x302 JUMP JUMPDEST PUSH1 0x40 MLOAD PUSH2 0x94 SWAP2 SWAP1 PUSH2 0x62A JUMP JUMPDEST PUSH1 0x40 MLOAD DUP1 SWAP2 SUB SWAP1 RETURN JUMPDEST PUSH2 0xB7 PUSH1 0x4 DUP1 CALLDATASIZE SUB DUP2 ADD SWAP1 PUSH2 0xB2 SWAP2 SWAP1 PUSH2 0x645 JUMP JUMPDEST PUSH2 0x338 JUMP JUMPDEST STOP JUMPDEST PUSH2 0xC1 PUSH2 0x519 JUMP JUMPDEST PUSH1 0x40 MLOAD PUSH2 0xCE SWAP2 SWAP1 PUSH2 0x6F1 JUMP JUMPDEST PUSH1 0x40 MLOAD DUP1 SWAP2 SUB SWAP1 RETURN JUMPDEST PUSH1 0x0 PUSH1 0xF8 SHL DUP3 PUSH1 0x0 PUSH1 0x20 DUP2 LT PUSH2 0xF0 JUMPI PUSH2 0xEF PUSH2 0x70C JUMP JUMPDEST JUMPDEST BYTE PUSH1 0xF8 SHL PUSH31 0xFFFFFFFFFFFFFFFFFFFFFFFFFFFFFFFFFFFFFFFFFFFFFFFFFFFFFFFFFFFFFF NOT AND SUB PUSH2 0x156 JUMPI PUSH1 0x40 MLOAD PUSH32 0x8C379A000000000000000000000000000000000000000000000000000000000 DUP2 MSTORE PUSH1 0x4 ADD PUSH2 0x14D SWAP1 PUSH2 0x7BE JUMP JUMPDEST PUSH1 0x40 MLOAD DUP1 SWAP2 SUB SWAP1 REVERT JUMPDEST PUSH1 0x0 DUP2 SUB PUSH2 0x199 JUMPI PUSH1 0x40 MLOAD PUSH32 0x8C379A000000000000000000000000000000000000000000000000000000000 DUP2 MSTORE PUSH1 0x4 ADD PUSH2 0x190 SWAP1 PUSH2 0x850 JUMP JUMPDEST PUSH1 0x40 MLOAD DUP1 SWAP2 SUB SWAP1 REVERT JUMPDEST PUSH1 0x0 PUSH1 0x2 PUSH1 0x0 DUP5 DUP2 MSTORE PUSH1 0x20 ADD SWAP1 DUP2 MSTORE PUSH1 0x20 ADD PUSH1 0x0 KECCAK256 SLOAD EQ PUSH2 0x1EF JUMPI PUSH1 0x40 MLOAD PUSH32 0x8C379A000000000000000000000000000000000000000000000000000000000 DUP2 MSTORE PUSH1 0x4 ADD PUSH2 0x1E6 SWAP1 PUSH2 0x8E2 JUMP JUMPDEST PUSH1 0x40 MLOAD DUP1 SWAP2 SUB SWAP1 REVERT JUMPDEST PUSH1 0x0 DUP1 SLOAD SWAP1 PUSH2 0x100 EXP SWAP1 DIV PUSH20 0xFFFFFFFFFFFFFFFFFFFFFFFFFFFFFFFFFFFFFFFF AND PUSH20 0xFFFFFFFFFFFFFFFFFFFFFFFFFFFFFFFFFFFFFFFF AND PUSH4 0x23B872DD CALLER ADDRESS DUP5 PUSH1 0x40 MLOAD DUP5 PUSH4 0xFFFFFFFF AND PUSH1 0xE0 SHL DUP2 MSTORE PUSH1 0x4 ADD PUSH2 0x24C SWAP4 SWAP3 SWAP2 SWAP1 PUSH2 0x932 JUMP JUMPDEST PUSH1 0x20 PUSH1 0x40 MLOAD DUP1 DUP4 SUB DUP2 PUSH1 0x0 DUP8 GAS CALL ISZERO DUP1 ISZERO PUSH2 0x26B JUMPI RETURNDATASIZE PUSH1 0x0 DUP1 RETURNDATACOPY RETURNDATASIZE PUSH1 0x0 REVERT JUMPDEST POP POP POP POP PUSH1 0x40 MLOAD RETURNDATASIZE PUSH1 0x1F NOT PUSH1 0x1F DUP3 ADD AND DUP3 ADD DUP1 PUSH1 0x40 MSTORE POP DUP2 ADD SWAP1 PUSH2 0x28F SWAP2 SWAP1 PUSH2 0x9A1 JUMP JUMPDEST PUSH2 0x2CE JUMPI PUSH1 0x40 MLOAD PUSH32 0x8C379A000000000000000000000000000000000000000000000000000000000 DUP2 MSTORE PUSH1 0x4 ADD PUSH2 0x2C5 SWAP1 PUSH2 0xA1A JUMP JUMPDEST PUSH1 0x40 MLOAD DUP1 SWAP2 SUB SWAP1 REVERT JUMPDEST DUP1 PUSH1 0x2 PUSH1 0x0 DUP5 DUP2 MSTORE PUSH1 0x20 ADD SWAP1 DUP2 MSTORE PUSH1 0x20 ADD PUSH1 0x0 KECCAK256 DUP2 SWAP1 SSTORE POP PUSH1 0x1 PUSH1 0x0 DUP2 SLOAD DUP1 SWAP3 SWAP2 SWAP1 PUSH2 0x2F9 SWAP1 PUSH2 0xA69 JUMP JUMPDEST SWAP2 SWAP1 POP SSTORE POP POP POP JUMP JUMPDEST PUSH1 0x0 CALLER PUSH1 0x1 SLOAD DUP4 PUSH1 0x40 MLOAD PUSH1 0x20 ADD PUSH2 0x31B SWAP4 SWAP3 SWAP2 SWAP1 PUSH2 0xB1A JUMP JUMPDEST PUSH1 0x40 MLOAD PUSH1 0x20 DUP2 DUP4 SUB SUB DUP2 MSTORE SWAP1 PUSH1 0x40 MSTORE DUP1 MLOAD SWAP1 PUSH1 0x20 ADD KECCAK256 SWAP1 POP SWAP2 SWAP1 POP JUMP JUMPDEST PUSH1 0x0 PUSH1 0xF8 SHL DUP2 PUSH1 0x0 PUSH1 0x20 DUP2 LT PUSH2 0x351 JUMPI PUSH2 0x350 PUSH2 0x70C JUMP JUMPDEST JUMPDEST BYTE PUSH1 0xF8 SHL PUSH31 0xFFFFFFFFFFFFFFFFFFFFFFFFFFFFFFFFFFFFFFFFFFFFFFFFFFFFFFFFFFFFFF NOT AND SUB PUSH2 0x3B7 JUMPI PUSH1 0x40 MLOAD PUSH32 0x8C379A000000000000000000000000000000000000000000000000000000000 DUP2 MSTORE PUSH1 0x4 ADD PUSH2 0x3AE SWAP1 PUSH2 0x7BE JUMP JUMPDEST PUSH1 0x40 MLOAD DUP1 SWAP2 SUB SWAP1 REVERT JUMPDEST PUSH1 0x0 PUSH1 0x2 PUSH1 0x0 DUP4 DUP2 MSTORE PUSH1 0x20 ADD SWAP1 DUP2 MSTORE PUSH1 0x20 ADD PUSH1 0x0 KECCAK256 SLOAD SUB PUSH2 0x40D JUMPI PUSH1 0x40 MLOAD PUSH32 0x8C379A000000000000000000000000000000000000000000000000000000000 DUP2 MSTORE PUSH1 0x4 ADD PUSH2 0x404 SWAP1 PUSH2 0xBC9 JUMP JUMPDEST PUSH1 0x40 MLOAD DUP1 SWAP2 SUB SWAP1 REVERT JUMPDEST PUSH1 0x0 DUP1 SLOAD SWAP1 PUSH2 0x100 EXP SWAP1 DIV PUSH20 0xFFFFFFFFFFFFFFFFFFFFFFFFFFFFFFFFFFFFFFFF AND PUSH20 0xFFFFFFFFFFFFFFFFFFFFFFFFFFFFFFFFFFFFFFFF AND PUSH4 0xA9059CBB CALLER PUSH1 0x2 PUSH1 0x0 DUP6 DUP2 MSTORE PUSH1 0x20 ADD SWAP1 DUP2 MSTORE PUSH1 0x20 ADD PUSH1 0x0 KECCAK256 SLOAD PUSH1 0x40 MLOAD DUP4 PUSH4 0xFFFFFFFF AND PUSH1 0xE0 SHL DUP2 MSTORE PUSH1 0x4 ADD PUSH2 0x47B SWAP3 SWAP2 SWAP1 PUSH2 0xBE9 JUMP JUMPDEST PUSH1 0x20 PUSH1 0x40 MLOAD DUP1 DUP4 SUB DUP2 PUSH1 0x0 DUP8 GAS CALL ISZERO DUP1 ISZERO PUSH2 0x49A JUMPI RETURNDATASIZE PUSH1 0x0 DUP1 RETURNDATACOPY RETURNDATASIZE PUSH1 0x0 REVERT JUMPDEST POP POP POP POP PUSH1 0x40 MLOAD RETURNDATASIZE PUSH1 0x1F NOT PUSH1 0x1F DUP3 ADD AND DUP3 ADD DUP1 PUSH1 0x40 MSTORE POP DUP2 ADD SWAP1 PUSH2 0x4BE SWAP2 SWAP1 PUSH2 0x9A1 JUMP JUMPDEST PUSH2 0x4FD JUMPI PUSH1 0x40 MLOAD PUSH32 0x8C379A000000000000000000000000000000000000000000000000000000000 DUP2 MSTORE PUSH1 0x4 ADD PUSH2 0x4F4 SWAP1 PUSH2 0xC5E JUMP JUMPDEST PUSH1 0x40 MLOAD DUP1 SWAP2 SUB SWAP1 REVERT JUMPDEST PUSH1 0x0 PUSH1 0x2 PUSH1 0x0 DUP4 DUP2 MSTORE PUSH1 0x20 ADD SWAP1 DUP2 MSTORE PUSH1 0x20 ADD PUSH1 0x0 KECCAK256 DUP2 SWAP1 SSTORE POP POP JUMP JUMPDEST PUSH1 0x0 DUP1 SLOAD SWAP1 PUSH2 0x100 EXP SWAP1 DIV PUSH20 0xFFFFFFFFFFFFFFFFFFFFFFFFFFFFFFFFFFFFFFFF AND DUP2 JUMP JUMPDEST PUSH1 0x0 DUP1 REVERT JUMPDEST PUSH1 0x0 DUP2 SWAP1 POP SWAP2 SWAP1 POP JUMP JUMPDEST PUSH2 0x555 DUP2 PUSH2 0x542 JUMP JUMPDEST DUP2 EQ PUSH2 0x560 JUMPI PUSH1 0x0 DUP1 REVERT JUMPDEST POP JUMP JUMPDEST PUSH1 0x0 DUP2 CALLDATALOAD SWAP1 POP PUSH2 0x572 DUP2 PUSH2 0x54C JUMP JUMPDEST SWAP3 SWAP2 POP POP JUMP JUMPDEST PUSH1 0x0 DUP2 SWAP1 POP SWAP2 SWAP1 POP JUMP JUMPDEST PUSH2 0x58B DUP2 PUSH2 0x578 JUMP JUMPDEST DUP2 EQ PUSH2 0x596 JUMPI PUSH1 0x0 DUP1 REVERT JUMPDEST POP JUMP JUMPDEST PUSH1 0x0 DUP2 CALLDATALOAD SWAP1 POP PUSH2 0x5A8 DUP2 PUSH2 0x582 JUMP JUMPDEST SWAP3 SWAP2 POP POP JUMP JUMPDEST PUSH1 0x0 DUP1 PUSH1 0x40 DUP4 DUP6 SUB SLT ISZERO PUSH2 0x5C5 JUMPI PUSH2 0x5C4 PUSH2 0x53D JUMP JUMPDEST JUMPDEST PUSH1 0x0 PUSH2 0x5D3 DUP6 DUP3 DUP7 ADD PUSH2 0x563 JUMP JUMPDEST SWAP3 POP POP PUSH1 0x20 PUSH2 0x5E4 DUP6 DUP3 DUP7 ADD PUSH2 0x599 JUMP JUMPDEST SWAP2 POP POP SWAP3 POP SWAP3 SWAP1 POP JUMP JUMPDEST PUSH1 0x0 PUSH1 0x20 DUP3 DUP5 SUB SLT ISZERO PUSH2 0x604 JUMPI PUSH2 0x603 PUSH2 0x53D JUMP JUMPDEST JUMPDEST PUSH1 0x0 PUSH2 0x612 DUP5 DUP3 DUP6 ADD PUSH2 0x599 JUMP JUMPDEST SWAP2 POP POP SWAP3 SWAP2 POP POP JUMP JUMPDEST PUSH2 0x624 DUP2 PUSH2 0x542 JUMP JUMPDEST DUP3 MSTORE POP POP JUMP JUMPDEST PUSH1 0x0 PUSH1 0x20 DUP3 ADD SWAP1 POP PUSH2 0x63F PUSH1 0x0 DUP4 ADD DUP5 PUSH2 0x61B JUMP JUMPDEST SWAP3 SWAP2 POP POP JUMP JUMPDEST PUSH1 0x0 PUSH1 0x20 DUP3 DUP5 SUB SLT ISZERO PUSH2 0x65B JUMPI PUSH2 0x65A PUSH2 0x53D JUMP JUMPDEST JUMPDEST PUSH1 0x0 PUSH2 0x669 DUP5 DUP3 DUP6 ADD PUSH2 0x563 JUMP JUMPDEST SWAP2 POP POP SWAP3 SWAP2 POP POP JUMP JUMPDEST PUSH1 0x0 PUSH20 0xFFFFFFFFFFFFFFFFFFFFFFFFFFFFFFFFFFFFFFFF DUP3 AND SWAP1 POP SWAP2 SWAP1 POP JUMP JUMPDEST PUSH1 0x0 DUP2 SWAP1 POP SWAP2 SWAP1 POP JUMP JUMPDEST PUSH1 0x0 PUSH2 0x6B7 PUSH2 0x6B2 PUSH2 0x6AD DUP5 PUSH2 0x672 JUMP JUMPDEST PUSH2 0x692 JUMP JUMPDEST PUSH2 0x672 JUMP JUMPDEST SWAP1 POP SWAP2 SWAP1 POP JUMP JUMPDEST PUSH1 0x0 PUSH2 0x6C9 DUP3 PUSH2 0x69C JUMP JUMPDEST SWAP1 POP SWAP2 SWAP1 POP JUMP JUMPDEST PUSH1 0x0 PUSH2 0x6DB DUP3 PUSH2 0x6BE JUMP JUMPDEST SWAP1 POP SWAP2 SWAP1 POP JUMP JUMPDEST PUSH2 0x6EB DUP2 PUSH2 0x6D0 JUMP JUMPDEST DUP3 MSTORE POP POP JUMP JUMPDEST PUSH1 0x0 PUSH1 0x20 DUP3 ADD SWAP1 POP PUSH2 0x706 PUSH1 0x0 DUP4 ADD DUP5 PUSH2 0x6E2 JUMP JUMPDEST SWAP3 SWAP2 POP POP JUMP JUMPDEST PUSH32 0x4E487B7100000000000000000000000000000000000000000000000000000000 PUSH1 0x0 MSTORE PUSH1 0x32 PUSH1 0x4 MSTORE PUSH1 0x24 PUSH1 0x0 REVERT JUMPDEST PUSH1 0x0 DUP3 DUP3 MSTORE PUSH1 0x20 DUP3 ADD SWAP1 POP SWAP3 SWAP2 POP POP JUMP JUMPDEST PUSH32 0x5472616E73616374696F6E20686173682063616E6E6F7420626520656D707479 PUSH1 0x0 DUP3 ADD MSTORE PUSH32 0x2100000000000000000000000000000000000000000000000000000000000000 PUSH1 0x20 DUP3 ADD MSTORE POP JUMP JUMPDEST PUSH1 0x0 PUSH2 0x7A8 PUSH1 0x21 DUP4 PUSH2 0x73B JUMP JUMPDEST SWAP2 POP PUSH2 0x7B3 DUP3 PUSH2 0x74C JUMP JUMPDEST PUSH1 0x40 DUP3 ADD SWAP1 POP SWAP2 SWAP1 POP JUMP JUMPDEST PUSH1 0x0 PUSH1 0x20 DUP3 ADD SWAP1 POP DUP2 DUP2 SUB PUSH1 0x0 DUP4 ADD MSTORE PUSH2 0x7D7 DUP2 PUSH2 0x79B JUMP JUMPDEST SWAP1 POP SWAP2 SWAP1 POP JUMP JUMPDEST PUSH32 0x457363726F7720616D6F756E742063616E6E6F7420626520657175616C20746F PUSH1 0x0 DUP3 ADD MSTORE PUSH32 0x20302E0000000000000000000000000000000000000000000000000000000000 PUSH1 0x20 DUP3 ADD MSTORE POP JUMP JUMPDEST PUSH1 0x0 PUSH2 0x83A PUSH1 0x23 DUP4 PUSH2 0x73B JUMP JUMPDEST SWAP2 POP PUSH2 0x845 DUP3 PUSH2 0x7DE JUMP JUMPDEST PUSH1 0x40 DUP3 ADD SWAP1 POP SWAP2 SWAP1 POP JUMP JUMPDEST PUSH1 0x0 PUSH1 0x20 DUP3 ADD SWAP1 POP DUP2 DUP2 SUB PUSH1 0x0 DUP4 ADD MSTORE PUSH2 0x869 DUP2 PUSH2 0x82D JUMP JUMPDEST SWAP1 POP SWAP2 SWAP1 POP JUMP JUMPDEST PUSH32 0x556E69717565206861736820636F6E666C6963742C206861736820697320616C PUSH1 0x0 DUP3 ADD MSTORE PUSH32 0x726561647920696E207573652E00000000000000000000000000000000000000 PUSH1 0x20 DUP3 ADD MSTORE POP JUMP JUMPDEST PUSH1 0x0 PUSH2 0x8CC PUSH1 0x2D DUP4 PUSH2 0x73B JUMP JUMPDEST SWAP2 POP PUSH2 0x8D7 DUP3 PUSH2 0x870 JUMP JUMPDEST PUSH1 0x40 DUP3 ADD SWAP1 POP SWAP2 SWAP1 POP JUMP JUMPDEST PUSH1 0x0 PUSH1 0x20 DUP3 ADD SWAP1 POP DUP2 DUP2 SUB PUSH1 0x0 DUP4 ADD MSTORE PUSH2 0x8FB DUP2 PUSH2 0x8BF JUMP JUMPDEST SWAP1 POP SWAP2 SWAP1 POP JUMP JUMPDEST PUSH1 0x0 PUSH2 0x90D DUP3 PUSH2 0x672 JUMP JUMPDEST SWAP1 POP SWAP2 SWAP1 POP JUMP JUMPDEST PUSH2 0x91D DUP2 PUSH2 0x902 JUMP JUMPDEST DUP3 MSTORE POP POP JUMP JUMPDEST PUSH2 0x92C DUP2 PUSH2 0x578 JUMP JUMPDEST DUP3 MSTORE POP POP JUMP JUMPDEST PUSH1 0x0 PUSH1 0x60 DUP3 ADD SWAP1 POP PUSH2 0x947 PUSH1 0x0 DUP4 ADD DUP7 PUSH2 0x914 JUMP JUMPDEST PUSH2 0x954 PUSH1 0x20 DUP4 ADD DUP6 PUSH2 0x914 JUMP JUMPDEST PUSH2 0x961 PUSH1 0x40 DUP4 ADD DUP5 PUSH2 0x923 JUMP JUMPDEST SWAP5 SWAP4 POP POP POP POP JUMP JUMPDEST PUSH1 0x0 DUP2 ISZERO ISZERO SWAP1 POP SWAP2 SWAP1 POP JUMP JUMPDEST PUSH2 0x97E DUP2 PUSH2 0x969 JUMP JUMPDEST DUP2 EQ PUSH2 0x989 JUMPI PUSH1 0x0 DUP1 REVERT JUMPDEST POP JUMP JUMPDEST PUSH1 0x0 DUP2 MLOAD SWAP1 POP PUSH2 0x99B DUP2 PUSH2 0x975 JUMP JUMPDEST SWAP3 SWAP2 POP POP JUMP JUMPDEST PUSH1 0x0 PUSH1 0x20 DUP3 DUP5 SUB SLT ISZERO PUSH2 0x9B7 JUMPI PUSH2 0x9B6 PUSH2 0x53D JUMP JUMPDEST JUMPDEST PUSH1 0x0 PUSH2 0x9C5 DUP5 DUP3 DUP6 ADD PUSH2 0x98C JUMP JUMPDEST SWAP2 POP POP SWAP3 SWAP2 POP POP JUMP JUMPDEST PUSH32 0x5472616E7366657220746F20657363726F77206661696C656421000000000000 PUSH1 0x0 DUP3 ADD MSTORE POP JUMP JUMPDEST PUSH1 0x0 PUSH2 0xA04 PUSH1 0x1A DUP4 PUSH2 0x73B JUMP JUMPDEST SWAP2 POP PUSH2 0xA0F DUP3 PUSH2 0x9CE JUMP JUMPDEST PUSH1 0x20 DUP3 ADD SWAP1 POP SWAP2 SWAP1 POP JUMP JUMPDEST PUSH1 0x0 PUSH1 0x20 DUP3 ADD SWAP1 POP DUP2 DUP2 SUB PUSH1 0x0 DUP4 ADD MSTORE PUSH2 0xA33 DUP2 PUSH2 0x9F7 JUMP JUMPDEST SWAP1 POP SWAP2 SWAP1 POP JUMP JUMPDEST PUSH32 0x4E487B7100000000000000000000000000000000000000000000000000000000 PUSH1 0x0 MSTORE PUSH1 0x11 PUSH1 0x4 MSTORE PUSH1 0x24 PUSH1 0x0 REVERT JUMPDEST PUSH1 0x0 PUSH2 0xA74 DUP3 PUSH2 0x578 JUMP JUMPDEST SWAP2 POP PUSH32 0xFFFFFFFFFFFFFFFFFFFFFFFFFFFFFFFFFFFFFFFFFFFFFFFFFFFFFFFFFFFFFFFF DUP3 SUB PUSH2 0xAA6 JUMPI PUSH2 0xAA5 PUSH2 0xA3A JUMP JUMPDEST JUMPDEST PUSH1 0x1 DUP3 ADD SWAP1 POP SWAP2 SWAP1 POP JUMP JUMPDEST PUSH1 0x0 DUP2 PUSH1 0x60 SHL SWAP1 POP SWAP2 SWAP1 POP JUMP JUMPDEST PUSH1 0x0 PUSH2 0xAC9 DUP3 PUSH2 0xAB1 JUMP JUMPDEST SWAP1 POP SWAP2 SWAP1 POP JUMP JUMPDEST PUSH1 0x0 PUSH2 0xADB DUP3 PUSH2 0xABE JUMP JUMPDEST SWAP1 POP SWAP2 SWAP1 POP JUMP JUMPDEST PUSH2 0xAF3 PUSH2 0xAEE DUP3 PUSH2 0x902 JUMP JUMPDEST PUSH2 0xAD0 JUMP JUMPDEST DUP3 MSTORE POP POP JUMP JUMPDEST PUSH1 0x0 DUP2 SWAP1 POP SWAP2 SWAP1 POP JUMP JUMPDEST PUSH2 0xB14 PUSH2 0xB0F DUP3 PUSH2 0x578 JUMP JUMPDEST PUSH2 0xAF9 JUMP JUMPDEST DUP3 MSTORE POP POP JUMP JUMPDEST PUSH1 0x0 PUSH2 0xB26 DUP3 DUP7 PUSH2 0xAE2 JUMP JUMPDEST PUSH1 0x14 DUP3 ADD SWAP2 POP PUSH2 0xB36 DUP3 DUP6 PUSH2 0xB03 JUMP JUMPDEST PUSH1 0x20 DUP3 ADD SWAP2 POP PUSH2 0xB46 DUP3 DUP5 PUSH2 0xB03 JUMP JUMPDEST PUSH1 0x20 DUP3 ADD SWAP2 POP DUP2 SWAP1 POP SWAP5 SWAP4 POP POP POP POP JUMP JUMPDEST PUSH32 0x457363726F772077697468207472616E73616374696F6E206861736820646F65 PUSH1 0x0 DUP3 ADD MSTORE PUSH32 0x736E27742065786973742E000000000000000000000000000000000000000000 PUSH1 0x20 DUP3 ADD MSTORE POP JUMP JUMPDEST PUSH1 0x0 PUSH2 0xBB3 PUSH1 0x2B DUP4 PUSH2 0x73B JUMP JUMPDEST SWAP2 POP PUSH2 0xBBE DUP3 PUSH2 0xB57 JUMP JUMPDEST PUSH1 0x40 DUP3 ADD SWAP1 POP SWAP2 SWAP1 POP JUMP JUMPDEST PUSH1 0x0 PUSH1 0x20 DUP3 ADD SWAP1 POP DUP2 DUP2 SUB PUSH1 0x0 DUP4 ADD MSTORE PUSH2 0xBE2 DUP2 PUSH2 0xBA6 JUMP JUMPDEST SWAP1 POP SWAP2 SWAP1 POP JUMP JUMPDEST PUSH1 0x0 PUSH1 0x40 DUP3 ADD SWAP1 POP PUSH2 0xBFE PUSH1 0x0 DUP4 ADD DUP6 PUSH2 0x914 JUMP JUMPDEST PUSH2 0xC0B PUSH1 0x20 DUP4 ADD DUP5 PUSH2 0x923 JUMP JUMPDEST SWAP4 SWAP3 POP POP POP JUMP JUMPDEST PUSH32 0x457363726F772072657472696576616C206661696C6564210000000000000000 PUSH1 0x0 DUP3 ADD MSTORE POP JUMP JUMPDEST PUSH1 0x0 PUSH2 0xC48 PUSH1 0x18 DUP4 PUSH2 0x73B JUMP JUMPDEST SWAP2 POP PUSH2 0xC53 DUP3 PUSH2 0xC12 JUMP JUMPDEST PUSH1 0x20 DUP3 ADD SWAP1 POP SWAP2 SWAP1 POP JUMP JUMPDEST PUSH1 0x0 PUSH1 0x20 DUP3 ADD SWAP1 POP DUP2 DUP2 SUB PUSH1 0x0 DUP4 ADD MSTORE PUSH2 0xC77 DUP2 PUSH2 0xC3B JUMP JUMPDEST SWAP1 POP SWAP2 SWAP1 POP JUMP INVALID LOG2 PUSH5 0x6970667358 0x22 SLT KECCAK256 0xFB PUSH30 0x8B2C7FC5AA4215DB6D5AC1A732E0D45E73A94574DB2ECAA22483B1F8D2B2 PUSH5 0x736F6C6343 STOP ADDMOD EQ STOP CALLER "},"methodIdentifiers":{"_token()":"ecd0c0c3","depositEscrow(bytes32,uint256)":"21c56f13","getHash(uint256)":"6b2fafa9","withdrawalEscrow(bytes32)":"765d49ac"}}}}}