{
  "_format": "hh-sol-artifact-1",
  "contractName": "Escrow",
  "sourceName": "contracts/Escrow.sol",
  "abi": [
    {
      "inputs": [
        {
          "internalType": "address",
          "name": "ERC20Address",
          "type": "address"
        }
      ],
      "stateMutability": "nonpayable",
      "type": "constructor"
    },
    {
      "inputs": [],
      "name": "_token",
      "outputs": [
        {
          "internalType": "contract IERC20",
          "name": "",
          "type": "address"
        }
      ],
      "stateMutability": "view",
      "type": "function"
    },
    {
      "inputs": [
        {
          "internalType": "bytes32",
          "name": "trx_hash",
          "type": "bytes32"
        },
        {
          "internalType": "uint256",
          "name": "amount",
          "type": "uint256"
        }
      ],
      "name": "depositEscrow",
      "outputs": [],
      "stateMutability": "nonpayable",
      "type": "function"
    },
    {
      "inputs": [
        {
          "internalType": "uint256",
          "name": "amount",
          "type": "uint256"
        }
      ],
      "name": "getHash",
      "outputs": [
        {
          "internalType": "bytes32",
          "name": "result",
          "type": "bytes32"
        }
      ],
      "stateMutability": "view",
      "type": "function"
    },
    {
      "inputs": [
        {
          "internalType": "bytes32",
          "name": "trx_hash",
          "type": "bytes32"
        }
      ],
      "name": "withdrawalEscrow",
      "outputs": [],
      "stateMutability": "nonpayable",
      "type": "function"
    }
  ],
  "bytecode": "0x608060405234801561001057600080fd5b50604051610dd3380380610dd3833981810160405281019061003291906100e3565b6000600181905550806000806101000a81548173ffffffffffffffffffffffffffffffffffffffff021916908373ffffffffffffffffffffffffffffffffffffffff16021790555050610110565b600080fd5b600073ffffffffffffffffffffffffffffffffffffffff82169050919050565b60006100b082610085565b9050919050565b6100c0816100a5565b81146100cb57600080fd5b50565b6000815190506100dd816100b7565b92915050565b6000602082840312156100f9576100f8610080565b5b6000610107848285016100ce565b91505092915050565b610cb48061011f6000396000f3fe608060405234801561001057600080fd5b506004361061004c5760003560e01c806321c56f13146100515780636b2fafa91461006d578063765d49ac1461009d578063ecd0c0c3146100b9575b600080fd5b61006b600480360381019061006691906105ae565b6100d7565b005b610087600480360381019061008291906105ee565b610302565b604051610094919061062a565b60405180910390f35b6100b760048036038101906100b29190610645565b610338565b005b6100c1610519565b6040516100ce91906106f1565b60405180910390f35b600060f81b826000602081106100f0576100ef61070c565b5b1a60f81b7effffffffffffffffffffffffffffffffffffffffffffffffffffffffffffff191603610156576040517f08c379a000000000000000000000000000000000000000000000000000000000815260040161014d906107be565b60405180910390fd5b60008103610199576040517f08c379a000000000000000000000000000000000000000000000000000000000815260040161019090610850565b60405180910390fd5b60006002600084815260200190815260200160002054146101ef576040517f08c379a00000000000000000000000000000000000000000000000000000000081526004016101e6906108e2565b60405180910390fd5b60008054906101000a900473ffffffffffffffffffffffffffffffffffffffff1673ffffffffffffffffffffffffffffffffffffffff166323b872dd3330846040518463ffffffff1660e01b815260040161024c93929190610932565b6020604051808303816000875af115801561026b573d6000803e3d6000fd5b505050506040513d601f19601f8201168201806040525081019061028f91906109a1565b6102ce576040517f08c379a00000000000000000000000000000000000000000000000000000000081526004016102c590610a1a565b60405180910390fd5b806002600084815260200190815260200160002081905550600160008154809291906102f990610a69565b91905055505050565b6000336001548360405160200161031b93929190610b1a565b604051602081830303815290604052805190602001209050919050565b600060f81b816000602081106103515761035061070c565b5b1a60f81b7effffffffffffffffffffffffffffffffffffffffffffffffffffffffffffff1916036103b7576040517f08c379a00000000000000000000000000000000000000000000000000000000081526004016103ae906107be565b60405180910390fd5b600060026000838152602001908152602001600020540361040d576040517f08c379a000000000000000000000000000000000000000000000000000000000815260040161040490610bc9565b60405180910390fd5b60008054906101000a900473ffffffffffffffffffffffffffffffffffffffff1673ffffffffffffffffffffffffffffffffffffffff1663a9059cbb3360026000858152602001908152602001600020546040518363ffffffff1660e01b815260040161047b929190610be9565b6020604051808303816000875af115801561049a573d6000803e3d6000fd5b505050506040513d601f19601f820116820180604052508101906104be91906109a1565b6104fd576040517f08c379a00000000000000000000000000000000000000000000000000000000081526004016104f490610c5e565b60405180910390fd5b6000600260008381526020019081526020016000208190555050565b60008054906101000a900473ffffffffffffffffffffffffffffffffffffffff1681565b600080fd5b6000819050919050565b61055581610542565b811461056057600080fd5b50565b6000813590506105728161054c565b92915050565b6000819050919050565b61058b81610578565b811461059657600080fd5b50565b6000813590506105a881610582565b92915050565b600080604083850312156105c5576105c461053d565b5b60006105d385828601610563565b92505060206105e485828601610599565b9150509250929050565b6000602082840312156106045761060361053d565b5b600061061284828501610599565b91505092915050565b61062481610542565b82525050565b600060208201905061063f600083018461061b565b92915050565b60006020828403121561065b5761065a61053d565b5b600061066984828501610563565b91505092915050565b600073ffffffffffffffffffffffffffffffffffffffff82169050919050565b6000819050919050565b60006106b76106b26106ad84610672565b610692565b610672565b9050919050565b60006106c98261069c565b9050919050565b60006106db826106be565b9050919050565b6106eb816106d0565b82525050565b600060208201905061070660008301846106e2565b92915050565b7f4e487b7100000000000000000000000000000000000000000000000000000000600052603260045260246000fd5b600082825260208201905092915050565b7f5472616e73616374696f6e20686173682063616e6e6f7420626520656d70747960008201527f2100000000000000000000000000000000000000000000000000000000000000602082015250565b60006107a860218361073b565b91506107b38261074c565b604082019050919050565b600060208201905081810360008301526107d78161079b565b9050919050565b7f457363726f7720616d6f756e742063616e6e6f7420626520657175616c20746f60008201527f20302e0000000000000000000000000000000000000000000000000000000000602082015250565b600061083a60238361073b565b9150610845826107de565b604082019050919050565b600060208201905081810360008301526108698161082d565b9050919050565b7f556e69717565206861736820636f6e666c6963742c206861736820697320616c60008201527f726561647920696e207573652e00000000000000000000000000000000000000602082015250565b60006108cc602d8361073b565b91506108d782610870565b604082019050919050565b600060208201905081810360008301526108fb816108bf565b9050919050565b600061090d82610672565b9050919050565b61091d81610902565b82525050565b61092c81610578565b82525050565b60006060820190506109476000830186610914565b6109546020830185610914565b6109616040830184610923565b949350505050565b60008115159050919050565b61097e81610969565b811461098957600080fd5b50565b60008151905061099b81610975565b92915050565b6000602082840312156109b7576109b661053d565b5b60006109c58482850161098c565b91505092915050565b7f5472616e7366657220746f20657363726f77206661696c656421000000000000600082015250565b6000610a04601a8361073b565b9150610a0f826109ce565b602082019050919050565b60006020820190508181036000830152610a33816109f7565b9050919050565b7f4e487b7100000000000000000000000000000000000000000000000000000000600052601160045260246000fd5b6000610a7482610578565b91507fffffffffffffffffffffffffffffffffffffffffffffffffffffffffffffffff8203610aa657610aa5610a3a565b5b600182019050919050565b60008160601b9050919050565b6000610ac982610ab1565b9050919050565b6000610adb82610abe565b9050919050565b610af3610aee82610902565b610ad0565b82525050565b6000819050919050565b610b14610b0f82610578565b610af9565b82525050565b6000610b268286610ae2565b601482019150610b368285610b03565b602082019150610b468284610b03565b602082019150819050949350505050565b7f457363726f772077697468207472616e73616374696f6e206861736820646f6560008201527f736e27742065786973742e000000000000000000000000000000000000000000602082015250565b6000610bb3602b8361073b565b9150610bbe82610b57565b604082019050919050565b60006020820190508181036000830152610be281610ba6565b9050919050565b6000604082019050610bfe6000830185610914565b610c0b6020830184610923565b9392505050565b7f457363726f772072657472696576616c206661696c6564210000000000000000600082015250565b6000610c4860188361073b565b9150610c5382610c12565b602082019050919050565b60006020820190508181036000830152610c7781610c3b565b905091905056fea2646970667358221220fb7d8b2c7fc5aa4215db6d5ac1a732e0d45e73a94574db2ecaa22483b1f8d2b264736f6c63430008140033",
  "linkReferences": {},
  "deployedLinkReferences": {}
}